:020000040800F2
:1000000038040120DD010008E5010008E7010008CF
:10001000E9010008EB010008ED0100080000000004
:10002000000000000000000000000000EF010008D8
:10003000F101000800000000F30100083D0600087F
:10004000F7010008F7010008F7010008F7010008B0
:10005000F7010008F7010008F7010008F7010008A0
:10006000F7010008F7010008F7010008F701000890
:10007000F7010008F7010008F7010008F701000880
:10008000F7010008F7010008F7010008F701000870
:10009000F7010008F7010008F7010008F701000860
:1000A000F7010008F7010008F7010008F701000850
:1000B000F701000885070008F7010008F7010008AC
:1000C000F7010008F7010008F7010008F701000830
:1000D000F7010008F7010008F7010008F701000820
:1000E000F7010008F7010008F7010008F701000810
:1000F000F7010008F7010008F7010008F701000800
:10010000F7010008F7010008F7010008F7010008EF
:1001100099070008F7010008F7010008F701000837
:10012000F7010008F7010008F7010008F7010008CF
:10013000F7010008F7010008F7010008F7010008BF
:10014000F7010008F7010008F7010008F7010008AF
:10015000F7010008F7010008F7010008F70100089F
:10016000F7010008F7010008F7010008F70100088F
:10017000F7010008F7010008F7010008000000007F
:10018000F7010008F7010008F7010008F70100086F
:10019000F7010008F7010008F7010008F70100085F
:1001A000F7010008F7010008F7010008F70100084F
:1001B000F7010008F7010008F7010008F70100083F
:1001C000F7010008F7010008DFF80CD000F014FA7E
:1001D00000480047590B00083804012006488047B2
:1001E00006480047FEE7FEE7FEE7FEE7FEE7FEE71C
:1001F000FEE7FEE7FEE7FEE721070008C901000869
:100200002DE9FE4F804681EA0300C00F0C460090A6
:1002100021F0004123F00045B8EB0200A94105D2CE
:100220004046214690461C460B46024623F00040BD
:10023000104347D0270DC7F30A00C3F30A510290B9
:10024000401A019040286BDAC3F3130040F4801B7E
:100250000098924620B10023D2EB030A63EB0B0B0C
:1002600001985946C0F14002504600F00FF9064689
:100270000D4650465946019A00F017F910EB080058
:100280006141002487EA115284EAE7731A4340D09F
:10029000009A62B3019A012A4FEA075215DC001B4B
:1002A00061EB02014FF0004202EA0752CDE9004241
:1002B000001C41F5801132462B4600F04EF903B088
:1002C000BDE8F08F40462146F9E7001B61EB0201D3
:1002D000001C41F5801300185B412018A2F500179F
:1002E00047EB030140EAD570B6196D4111E06D0886
:1002F0004FEA360645EAC0754FEA0752001B61EB2C
:100300000201001C41F5801149084FEA3000001934
:10031000514132462B4603B0BDE8F04F00F00EB914
:100320000098012240000023D0EB020263EBE0734F
:10033000009821464FEAE074B8EB000061EB04013D
:10034000E9E783F000435BE781F0004158E72DE9DE
:10035000FE4F81EA030404F0004421F000410094C0
:100360004FF0000B23F0004350EA01045ED052EA44
:1003700003045BD0C3F30A54C1F30A552C44A4F21E
:10038000F3340194A0FB0254C1F3130141F4801132
:10039000C3F3130343F4801301FB024400FB034E39
:1003A000840A970A44EA815447EA8357A4FB076802
:1003B00002958D0A05FB07854FEA932C04FB0C542C
:1003C0002705029D4FEA065847EA1637B5EB0805A0
:1003D0006EEB070C870E920E47EA811742EA8312F2
:1003E000A7FB0201B6EB0B0164EB00042B0D43EA03
:1003F0000C335E1844EB1C50DA465146E7FB020111
:10040000C5F313044FEA0B3343EA14534FEA0432A3
:10041000019C43EA0603A4F10C040294009CCDE97C
:1004200000B400F09AF803B0BDE8F08F0020014658
:10043000F9E70EB5C10F80EAE0700844CA07002151
:1004400040F233438DE80E000A460B4600F085F873
:1004500003B000BD01F0004330B421F0004150EA88
:10046000010206D00A0DA2F56072C1F31301002A41
:1004700002DC30BC00207047440F44EAC104C100D4
:10048000E01830BC00EBC25000F021B8202A04DB99
:10049000203A00FA02F1002070479140C2F1200397
:1004A00020FA03F3194390407047202A06DBCB174C
:1004B000203A41FA02F043EAE07306E041FA02F31F
:1004C000D040C2F1200291400843194670470029EC
:1004D000A8BF7047401C490008BF20F001007047CA
:1004E00010B4B0FA80FC00FA0CF050EA010404BF2A
:1004F00010BC704749B1CCF1200421FA04F411FA80
:100500000CF118BF012121430843A3EB0C01CB1DC3
:100510004FEA00614FEA102042BF002010BC704734
:1005200000EBC35010440029A4BF10BC7047401C0E
:10053000490008BF20F0010010BC704710B5141E20
:1005400073F1000408DA401C41F1000192185B418C
:100550001A4301D120F0010010BD2DE9F04D924663
:100560009B4611B1B1FA81F202E0B0FA80F220327A
:100570009046FFF78BFF04460F4640EA0A0041EA27
:100580000B0153465A46084313D0114653EA010063
:1005900019D0C8F14002504600F040F805460E461A
:1005A000504659464246FFF771FF084305D00120E7
:1005B00004E020463946BDE8F08D0020054346EAB8
:1005C000E0762C4337430A986305E40AA0EB080061
:1005D0000022FD0A44EA47540A3002D500200146B1
:1005E000E9E7010510196941DDE90845001969418C
:1005F000BDE8F04DA2E70000064C074D06E0E068BC
:1006000040F0010394E8070098471034AC42F6D359
:10061000FFF7DEFDAC0E0008CC0E0008202A04DB3C
:10062000203A21FA02F00021704721FA02F3D0406B
:10063000C2F12002914008431946704707480088DC
:10064000401C00B2054908800846B0F90000B0F52A
:10065000FA5F01DD002008807047000012000120D1
:1006600070B500200022022300240221274D2D68AE
:1006700005F00C0020B1042806D0082834D107E08A
:10068000234D244E356033E0234D224E35602FE05C
:100690001E4D2D1F2D68C5F380541C4D2D1F2D6838
:1006A00005F03F0154B11C4DB5FBF1F5174E361F57
:1006B0003668C6F3881605FB06F209E0144DB5FB53
:1006C000F1F5124E361F3668C6F3881605FB06F2A2
:1006D0000E4D2D1F2D68C5F301456D1C6B00B2FB3F
:1006E000F3F50C4E356003E0094D0A4E356000BF4E
:1006F00000BF064D2D68C5F30315084E705D054D0E
:100700002D68C540034E356070BD000008380240BA
:100710000024F4003000012040787D01940E000890
:100720001448006840F470001249086012480068DC
:1007300040F001001049086000200F4908310860AE
:100740000D4800680D4908400B4908600C48091D18
:100750000860081F006820F48020091F086000203E
:1007600005490C3108604FF000600249803908608B
:100770007047000088ED00E000380240FFFFF6FE01
:10078000103000240348006820F00100014908608F
:10079000704700001004004010B52DED068B9948FD
:1007A000006800F0200000287DD0964808300068DE
:1007B00095490870084600789449954AB2F9002096
:1007C000885493480088401C00B29149088008462C
:1007D000B0F90000032866DD8C480078622803D059
:1007E0008A480078422832D18848407830386421DD
:1007F00010FB01F185488078303800EB800001EB78
:1008000040018248C0783038084400B281490880ED
:100810000846B0F90000FFF70CFE9FED7F0B53EC8C
:10082000102BFFF794FD9FED7E0B53EC102BFFF781
:10083000E7FCFFF70FFE7C490860084690ED000AD0
:10084000BCEEC00A10EE100A78490860D4E06F4888
:100850000078702803D06D480078502835D16B4857
:1008600040783038642110FB01F1684880783038D6
:1008700000EB800001EB40016448C0783038084448
:1008800000B26B4908800846B0F90000FFF7D1FDBF
:100890009FED610B53EC102BFFF759FD9FED600BA3
:1008A00053EC102B00E0AAE0FFF7AAFCFFF7D2FD03
:1008B00060490860084690ED000ABCEEC00A10EEE0
:1008C000100A5A49091D086096E0504800787328BC
:1008D00003D04E480078532833D14C484078303804
:1008E000642110FB01F149488078303800EB80002A
:1008F00001EB40014548C0783038084400B24E4909
:1009000008800846B0F90000FFF793FD9FED420B09
:1009100053EC102BFFF71BFD9FED410B53EC102BFD
:10092000FFF76EFCFFF796FD44490860084690ED1E
:10093000000ABCEEC00A10EE100A3C4908310860FB
:100940005AE032480078672803D0304800784728BA
:1009500040D12E4840783038642110FB01F12B48FB
:100960008078303800EB800001EB40012748C078E8
:100970003038084400B2324908800846B0F9000017
:100980007E2801DB7E2008802D48B0F90000FFF7AB
:1009900050FD41EC1A0B9FED200B53EC102BFFF791
:1009A000D6FC41EC190B9FED1E0B53EC102BFFF7FF
:1009B00027FC41EC180BFFF74DFD22490860084663
:1009C00090ED000ABCEEC00A10EE100A17490C3177
:1009D000086011E00D480078712803D00B480078BA
:1009E000512803D101201849087005E017A000F034
:1009F00037F8002006490880002005490880BDEC32
:100A0000068B10BD1C4C00400A0001200B00012089
:100A10001000012014000120F9A067B3EA932240DE
:100A2000CDCCCCCCCC4C824024000120340C0040F6
:100A3000160001201C0001201800012020000120C8
:100A40001A000120280001202C000120436F6D6155
:100A50006E646F20496E636F72726563746F2A00F3
:100A6000002112E0425C0D4B1A701A4612780C4BB2
:100A70001A6000BF0A4A0C3A126802F08002084B62
:100A80000C3B1A60002AF5D0491C044A12782A2A25
:100A9000E8D13121014A11707047000000000120A7
:100AA000284C00404FF47A7190FBF1F109B2104AE2
:100AB0001180642190FBF1F10A2291FBF2F302FB19
:100AC000131109B20B4A1180642190FBF1F201FB72
:100AD00012010A2291FBF2F109B2074A11800A21A0
:100AE00090FBF1F201FB1201044A118070470000F3
:100AF000020001200400012006000120080001205E
:100B00000649086000BF05490C39096801F08001F9
:100B1000024A0C3A11600029F5D07047284C004079
:100B2000002809DB00F01F020121914042099200D8
:100B300002F1E022C2F80011704702E008C8121F5B
:100B400008C1002AFAD170477047002001E001C1B6
:100B5000121F002AFBD17047B048006840F0070020
:100B6000AE490860AE48006840F0AA00AC49086091
:100B700042F222200862AB48006840F42000A949F4
:100B800008604FF40841A7484162FFF769FDA64895
:100B900000684FF47A72B0FBF2F1481EB0F1807F2A
:100BA00000D31BE0481E4FF0E022506150170F2287
:100BB000002804DB13071C0E9C4B1C5406E0130793
:100BC0001D0E9B4B00F00F04241F1D5500BF00207D
:100BD0004FF0E02290610720106100BF8F48103075
:100BE000006840F400208D491031086040F28360B5
:100BF000904908608F480C38006840F02C008D49FF
:100C00000C3908600846006840F001000860342094
:100C1000FFF786FF81481030006840F008007F49E8
:100C2000103108608448006840F001008249086083
:100C30000F208149143108607F480838006840F06F
:100C400001007D490839086044F620607A4918316E
:100C5000086079480C30006841F211110843764968
:100C60000C31086046F260007349091D0860091DD7
:100C700008607248B0F900006F4920310860704880
:100C8000B0F90000091D08606E48B0F90000091DA8
:100C900008606D48B0F90000091D08606648143806
:100CA000006840F001006449143908601D20FFF716
:100CB00037FFB2E0654800780128FAD10020634987
:100CC000087063A0FFF7CCFE634890ED000ABDEE0C
:100CD000C00A10EE100A00B2FFF7E4FE2020FFF772
:100CE0000FFF5E4909783031C8B2FFF709FF5C4950
:100CF00009783031C8B2FFF703FF5A49097830311B
:100D0000C8B2FFF7FDFE584909783031C8B2FFF785
:100D1000F7FE0A20FFF7F4FE54A0FFF7A1FE5548A6
:100D200090ED000ABDEEC00A10EE100A00B2FFF707
:100D3000B9FE2020FFF7E4FE484909783031C8B2F7
:100D4000FFF7DEFE464909783031C8B2FFF7D8FE1A
:100D5000444909783031C8B2FFF7D2FE42490978D8
:100D60003031C8B2FFF7CCFE0A20FFF7C9FE42A01F
:100D7000FFF776FE2020FFF7C3FE424890ED000A01
:100D8000BDEEC00A10EE100A00B2FFF78BFE334929
:100D900009783031C8B2FFF7B3FE314909783031F4
:100DA000C8B2FFF7ADFE2F4909783031C8B2FFF75E
:100DB000A7FE2D4909783031C8B2FFF7A1FE0A20FD
:100DC000FFF79EFE30A0FFF74BFE2020FFF798FEB6
:100DD0002F4890ED000ABDEEC00A10EE100A00B2D6
:100DE000FFF760FE1D4909783031C8B2FFF788FE71
:100DF0001B4909783031C8B2FFF782FE19490978DA
:100E00003031C8B2FFF77CFE174909783031C8B2DB
:100E1000FFF776FE0A20FFF773FE4BE730380240FB
:100E200000000240000802403000012000E400E021
:100E300018ED00E00C4C0040140C004014000120A0
:100E400016000120180001201A0001202C000120AA
:100E5000426173652A000000240001200200012085
:100E60000400012006000120080001205072696D75
:100E700065722A001C000120536567756E646F2A35
:100E8000000000002000012047617272612A00000A
:100E900028000120000000000000000001020304FF
:100EA000060708090000000001020304CC0E000838
:100EB00000000120340000003A0B0008000F000879
:100EC00034000120040400004A0B00083100000037
:100ED0000000000000000000000000000000000012
:100EE0001405DC05DC05FE01000000000000000028
:100EF0000000000000000000000000000024F400DA
:04000005080001DD11
:00000001FF
